:020000040800F2
:10000000D8050020010100087F200008C117000862
:100010007D200008D30100087D25000800000000B5
:10002000000000000000000000000000CD210008DA
:10003000D501000800000000812000089D22000872
:100040001B0100081B0100081B0100081B01000820
:100050001B0100081B0100081B0100081B01000810
:100060001B0100081B0100081B0100081B01000800
:100070001B0100081B0100081B0100081B010008F0
:100080001B0100081B0100081B0100081B010008E0
:100090001B0100081B0100081B0100081B010008D0
:1000A0001B0100081B0100081B0100081B010008C0
:1000B0001B0100081B0100081B0100081B010008B0
:1000C0001B0100081B0100081B0100081B010008A0
:1000D0001B0100081B0100081B0100081B01000890
:1000E0001B0100081B0100081B010008DFF80CD0F1
:1000F00000F032F800480047BD250008D805002070
:100100000648804706480047FEE7FEE7FEE7FEE7B1
:10011000FEE7FEE7FEE7FEE7FEE7FEE7192300083D
:10012000ED000008D2B201E000F8012B491EFBD21D
:1001300070470022F6E710B513460A4604461946F2
:10014000FFF7F0FF204610BD421C10F8011B0029EC
:10015000FBD1801A70470000064C074D06E0E068AE
:1001600040F0010394E8070098471034AC42F6D3FE
:10017000FFF7C0FF3C4B00085C4B000870B504461D
:1001800000688168C943C90717D1816821F001015E
:10019000816000F0AFFC05460AE000BF00F0AAFC59
:1001A000401B022804D920688068C043C00706D0DD
:1001B00020688068C043C007F0D0002070BDA06AEE
:1001C00040F01000A062E06A40F00100E06201200F
:1001D00070BDFEE7704700002DE9F0471E4E8046D7
:1001E0004FF6FF701C46308015460F460B464046C2
:1001F00001F038FB424623463946104601F032FBF7
:10020000601E83B281B248F2104908F10100A6F8DD
:10021000009080B22A4601F025FB44F2082A2346CA
:10022000A6F800A02A461946404601F01BFB681EAE
:1002300082B2791CA6F8009089B280B2234601F000
:1002400011FB2A46A6F800A023463946BDE8F04730
:10025000104601F007BB0000000000202DE9FE431E
:1002600080464FF6FF75284601F0ACFA164C1F2663
:100270000096002122881423084601F06BFB0096AB
:1002800063882288A3F1140081B2002001F062FB90
:100290000E48012610270580CDF80080CDE90176B3
:1002A0001F232A460221002000F0AAF908A0CDE968
:1002B0000007029660881F23123881B22A46002068
:1002C00000F09EF9BDE8FE831C0000200000002025
:1002D0007777772E6C636477696B692E636F6D0037
:1002E00072B6FEE72DE9FF4F83B004463E20CDE90C
:1002F0000040DDF844B000274FF080093148109AE3
:1003000007EB071110F811301278934240D100EB3F
:10031000410A10989AF801104078814238D1049827
:1003200004990F3083B204F10F0082B2204601F02D
:100330001BFC002600250AEB060800BFBBF1000FDE
:1003400013D021490598088098F8021029FA05F081
:10035000014203D02046049901F0D2FA641C0098AF
:10036000A4B2201A102826D00AE098F8021029FA20
:1003700005F0014201D0059800E0069801F018FD53
:100380006D1CEDB2082DD9D3761CF6B2202ED1D338
:100390007F1C0198BFB28742B0D30C4841880088C7
:1003A00007B0491EBDE8F04F401E8BB282B200215B
:1003B000084601F0D9BB0498009C401C80B2049010
:1003C000E2E7000010320008000000201C000020BE
:1003D0002DE9FF4F83B004460720CDE90040DDF84A
:1003E00044B000274FF0800907EB870000EB47116E
:1003F0003048109A10F811301278934240D100EB37
:10040000410A10989AF801104078814238D1049836
:100410000499173083B204F1170082B2204601F02C
:10042000A3FB002600250AEB060800BFBBF1000F66
:1004300013D021490598088098F8021029FA05F090
:10044000014203D02046049901F05AFA641C009836
:10045000A4B2201A182826D00AE098F8021029FA27
:1004600005F0014201D0059800E0069801F0A0FCDB
:100470006D1CEDB2082DD9D3761CF6B2482ED1D31F
:100480007F1C0198BFB28742AED30C4841880088D8
:1004900007B0491EBDE8F04F401E8BB282B200216A
:1004A000084601F061BB0498009C401C80B2049097
:1004B000E2E700004C3A0008000000201C00002089
:1004C0002DE9FF4F83B004460420CDE90040DDF85C
:1004D00044B000274FF080093148109A07EB87118C
:1004E00010F811301278934240D100EB410A109875
:1004F0009AF801104078814238D1049804991F304D
:1005000083B204F11F0082B2204601F02DFB0026C9
:1005100000250AEB060800BFBBF1000F13D02149EC
:100520000598088098F8021029FA05F0014203D0D6
:100530002046049901F0E4F9641C0098A4B2201A42
:10054000202826D00AE098F8021029FA05F0014286
:1005500001D0059800E0069801F02AFC6D1CEDB270
:10056000082DD9D3761CF6B2802ED1D37F1C0198EA
:10057000BFB28742B0D30C484188008807B0491EFB
:10058000BDE8F04F401E8BB282B20021084601F058
:10059000EBBA0498009C401C80B20490E2E7000093
:1005A000523C0008000000201C00002070B51546D9
:1005B00001F1270293B200F1270292B201F0D4FABE
:1005C00000244FF4C86600BF05EB440115F8140081
:1005D000497840EA012001F0EBFB641CB442F3DBF4
:1005E000064841880088491E401EBDE870408BB215
:1005F00082B20021084601F0B7BA00001C000020BA
:100600002DE9FE431F46DDE90A469046894620460D
:100610000C9DFFF799FD0A4980B240420988CDE957
:10062000004601EBC00000EBD070C0F34F003B462A
:1006300042464946029501F0CBFDBDE8FE8300002D
:100640001C000020F8B50024009490F824202546D2
:10065000012A12D0012280F824204A681F23072A89
:100660000DD20668776B521E02EB820293409F43C5
:100670000B6893401F43776319E00220F8BD0668BA
:100680000D2A0AD2376BD21F02EB820293409F439E
:100690000B6893401F43376309E0F76A0D3A02EB9A
:1006A000820293409F430B6893401F43F7620A689E
:1006B000072306680A2A0AD3F7680A3A02EB4202BD
:1006C00093409F438B6893401F43F76008E037696E
:1006D00002EB420293409F438B6893401F43376174
:1006E0000A68102A01D0112A20D1124B02689A42BE
:1006F00017D193681B0219D4936843F400039360E5
:100700000968102912D10C490C4A0968B1FBF2F1B1
:1007100001EB8101490000E0491E00910029FBD155
:1007200004E0816A41F020018162012480F82450B4
:100730002046F8BD002401401800002040420F0070
:100740002DE9F0414FF0000704003D467ED0A06A3D
:10075000002628B9E66284F82460204600F07EF87E
:100760002046FFF70BFDA16AC90600D420B1A06A9C
:1007700040F01000A06269E0A16A21F4885141F0C4
:100780000201A1626268E169237B0A4347EA4301EF
:100790000A43A1684FF48077B94209D0012907D0F4
:1007A0005FF0000194F814C0BCF1010F02D00AE020
:1007B0003946F7E7F3B1A36A43F02003A362E36A83
:1007C00043F00103E3622368D3F804C02CF4694CBE
:1007D0004CEA010CC3F804C021688B68DFF870C0D4
:1007E00003EA0C0313438B60A168B9420BD00129C3
:1007F00009D00CE0DFF85CC0A3690CEB43330B437A
:1008000043F40061DFE7218A0D05A5F58015216815
:10081000CB6A23F470032B43CB62216889680E4BAB
:100820001940914208D1E662A16A21F0020141F02B
:100830000101A162BDE8F081A06A20F0020040F051
:100840001000A062E06A40F00100E0620120F1E7E0
:10085000FDF7E1FF00E0FFFFFE0E1FFF10B586B0C1
:10086000002100910191029103911A4C03681A49E9
:1008700003221A48A34211D18B6943F400738B61A0
:100880008B6903F4007304938B6943F004038B6159
:10089000896901F004010491862113E0104CA34200
:1008A00015D18B6943F480638B618B6903F480639A
:1008B00004938B6943F004038B61896901F004019F
:1008C00004912021CDE90012694600F01DF806B020
:1008D00010BD00000024014000100240000801404B
:1008E0000028014070B5044600F004F90546601C7C
:1008F00002D004480078044400F0FCF8401BA042F9
:10090000FAD370BD0C0000202DE9F84FDFF8B89144
:10091000002409F1040A0AF1040B23460F270BF106
:10092000040EC9E00125A5402A40AA427DD1674EA8
:10093000D1F804C0ACEB0608B44532D014DCBCF1ED
:10094000030F3AD009DCBCF1000F2AD0BCF1010F33
:100950001CD0BCF1020F31D11DE0BCF1110F17D03A
:10096000BCF1120F2AD119E0B8F5881F19D006DCA6
:10097000B8F5803F15D0B8F5801F1FD111E0B8F54C
:10098000001F0ED0B8F5041F18D10AE0CB6815E09F
:10099000CB681B1D12E0CB6808330FE0CB680C332B
:1009A0000CE08B682BB1012B4FF0080303D045619D
:1009B00004E0042302E0056100E00023FF2A01D8DF
:1009C000064601E000F104064FEA840501D9A5F1CD
:1009D0002005D6F8008007FA05FC28EA0C0803FA7F
:1009E00005F548EA0508C6F800804D68ED0062D5B7
:1009F000374DAE6946F00106AE61AD6924F00306DD
:100A000005F001050095334D06EB050CDCF80850A8
:100A1000A607360F07FA06F825EA0805DFF8B880BA
:100A2000404503D14FF0000817E044E0DFF8AC8008
:100A3000404502D14FF001080FE0DFF8A4804045A7
:100A400002D14FF0020808E0DFF89880404502D15B
:100A50004FF0030801E04FF0040808FA06F848EAEE
:100A60000508CCF808804D68D9F80060ED034D46C4
:100A700001D5164300E096432E604D68DAF8006019
:100A8000AD03554601D5164300E096432E604D68F0
:100A9000DBF80060ED025D4601D5164300E09643A9
:100AA0002E604D68DEF80060AD02754601D5164334
:100AB00000E096432E60641C0D682A46E5407FF4F2
:100AC00031AFBDE8F88F00000004014000001110B4
:100AD000001002400000014000080140000C0140ED
:100AE00000100140001401400AB10161704709047F
:100AF000FBE7000001488068704700000C00002000
:100B000070B5040025D094F83D00002520B984F884
:100B10003C50204600F0B8F8242084F83D002068BE
:100B2000016821F0010101602068016841F4004181
:100B300001602068016821F40041016000F072FA50
:100B40004D4A6168914201D84C4900E04C498842C5
:100B500001D2012070BD4B492368B0FBF1F15E6802
:100B600026F03F060E435E606368934206D94FF459
:100B7000967359434FF47A73B1FBF3F12368491C20
:100B80001E6A26F03F06314319626168914210D80F
:100B90004900401EB0FBF1F2521CC2F30B02042AC2
:100BA00001D2042022E0B0FBF1F0401CC0F30B00A6
:100BB0001CE0A268F2B301EBC10303EB0116431E74
:100BC000B3FBF6F35B1C43F480431B0549D092B39F
:100BD00001EBC10202EB0111401EB0FBF1F0401C21
:100BE000C0F30B0040F4804040F400402168CA6923
:100BF0004CF6FF739A431043C861D4E907100143D0
:100C00002068026822F0C00211430160D4E90301A8
:100C100001432068826848F2FF339A4311438160A0
:100C2000D4E9050108432168CA6822F0FF02104395
:100C3000C86001E00EE016E02068016841F00101A3
:100C400001602564202084F83D00256384F83E502F
:100C5000002070BD01EB4106431EB3FBF6F35B1CA5
:100C6000B3E70120C2E701EB4101401EB0FBF1F008
:100C7000401CC0F30B00B7E7A086010080841E0073
:100C800000093D0040420F0010B586B000210091E0
:100C900001910291039100681349884222D1134CBB
:100CA000A06940F00800A061A069694600F0080052
:100CB00004904FF4407000901220019003200390A4
:100CC0000B48FFF721FE0B48416841F0E06141F01D
:100CD00002014160E06940F40010E061E06900F465
:100CE0000010049006B010BD0054004000100240F7
:100CF000000C014000000140024881680278114464
:100D0000816070470C000020074810B5016841F071
:100D100010010160032000F067F8002000F006F8E1
:100D200000F024F8002010BD0020024070B50D4DE9
:100D300004464FF47A712878B1FBF0F00A4909684B
:100D4000B1FBF0F000F0BFFC48B9102C07D2002234
:100D50002146501E00F028F800206C6070BD012074
:100D600070BD00000C000020180000200C4808B5E1
:100D7000816941F001018161816901F00101009106
:100D8000C16941F08051C161C06900F0805000909C
:100D90000448416821F0E06141F00071416008BD04
:100DA0000010024000000140F0B40E4B1B680C46DE
:100DB000C3F30223C3F10705042D00D90425191D2F
:100DC000072901D2002300E0DB1E012606FA05F107
:100DD000491E214099409E40761E16403143F0BC8A
:100DE00001F0CDBB0CED00E0064900F007020868F9
:100DF0004FF6FF03184040EA0220034A1043086000
:100E0000704700000CED00E00000FA052DE9F84302
:100E100005460078354CC00754D0E0690026C00074
:100E200008D4E06940F08050E061E069012600F0FC
:100E3000805000902E480168C90512D40168804690
:100E400041F480710160FFF755FE074605E000BFE1
:100E5000FFF750FEC01B642823D8D8F80000C00557
:100E6000F6D5206A10F4407021D0A98801F44071B1
:100E700081421CD0206A1F49012220F440700A6080
:100E800000220A602062C00711D0FFF733FE074638
:100E900041F2883808E000BFFFF72CFEC11B414536
:100EA00002D90320BDE8F883206A8007F4D5206AC0
:100EB000696820F44070084320621EB1E06920F0A8
:100EC0008050E0612878800705D56068A96820F423
:100ED0004040084360602878C00605D56068E9682E
:100EE00020F48000084360600020DBE7001002402F
:100EF00000700040400442422DE9F0470F460500D3
:100F000061D0434E306800F00700B84209D2306823
:100F100020F0070038433060306800F00700B84226
:100F200051D128683B4C810712D5400703D5606832
:100F300040F4E06060602878000703D5606840F402
:100F4000605060606068A96820F0F000084360604D
:100F50002878C00728D06868012810D021680228A6
:100F600010D0890700292EDA616821F003010143BE
:100F70006160FFF7BFFD804641F288390DE02168CE
:100F80008903EFE78901EDE7FFF7B4FDA0EB080166
:100F9000494502D90320BDE8F0876068696800F020
:100FA0000C00B0EB810FEFD1306800F00700B842C1
:100FB0000BD9306820F0070038433060306800F00B
:100FC0000700B84201D00120E5E72878400705D5A1
:100FD0006068E96820F4E0600843606028780007F2
:100FE00006D56068296920F4605040EAC10060605D
:100FF00000F038F86168084AC1F30311515CC84039
:101000000649086006480068FFF790FE0020C2E726
:101010000020024000100240EC4A000818000020A6
:10102000100000200448054900684968044AC1F3DB
:101030000221515CC8407047180000200010024097
:10104000FC4A00080448054900684968044AC1F39D
:10105000C221515CC84070471800002000100240B7
:10106000FC4A000812A185B00FC98DE80F0014A03A
:10107000144A006804905168134801F00C03042BD3
:1010800010D0082B0ED1C1F38343C9031DF8030010
:101090000AD5516804AAC1F34041515C0A4A504341
:1010A000B0FBF1F005B0704708494843FAE700008B
:1010B00002030405060708090A0B0C0D0E0F101099
:1010C000010200000010024000127A0000093D00F9
:1010D0002DE9F84F040070D02078C04DC00749D0EA
:1010E0006868C0F38100012807D06868C0F38100F8
:1010F000022809D16868C00306D52868800339D55D
:1011000060680028E7D035E06068B0F5803F0BD01C
:1011100010B1B0F5A02F11D0286820F480302860DD
:10112000286820F4802002E0286840F4803028609D
:10113000606890B1FFF7DEFC06460AE0286840F4DC
:1011400080202860F0E700BFFFF7D4FC801B6428F4
:1011500073D828688003F7D50CE0FFF7CBFC064670
:1011600005E000BFFFF7C6FC801B6428F0D82868A4
:101170008003F7D420789A4E80074FF001094FF092
:10118000000839D5686810F00C0F07D06868C0F304
:101190008100022809D16868C00306D42868800746
:1011A00014D52069012808D110E02069B0B1C6F833
:1011B0000090FFF79FFC074605E00AE1FFF79AFC65
:1011C000C01B0228C4D828688007F7D52868616941
:1011D00020F0F80040EAC10028600DE0C6F8008069
:1011E000FFF788FC074604E0FFF784FCC01B0228D9
:1011F00023D828688007F7D4207800072CD57948B1
:10120000A169D9B1C0F80090FFF774FC074604E06B
:10121000FFF770FCC01B02280FD8686A8007F7D55B
:1012200071484FF4FA510068B0FBF1F0009000BF34
:101230000098411E0091FAD20EE080E0C0F80080D4
:10124000FFF758FC074604E0FFF754FCC01B0228D8
:1012500075D8686A8007F7D42078400760D5E869B8
:101260000027C00008D4E86940F08050E861E869D0
:10127000012700F0805000905C480168C90513D434
:101280000168834641F480710160FFF733FC8246B8
:1012900006E000BFFFF72EFCA0EB0A0064284ED842
:1012A000DBF80000C005F5D5E06801280AD008B1D8
:1012B000052813D0286A20F001002862286A20F04F
:1012C000040002E0286A40F001002862E06841F270
:1012D000883B98B1FFF70EFC82460BE0286A40F08D
:1012E00004002862EEE700BFFFF704FCA0EB0A0150
:1012F00059455AD8286A8007F6D50CE0FFF7FAFB63
:10130000824605E0FFF7F6FBA0EB0A0159454CD8F1
:10131000286A8007F6D41FB1E86920F08050E861A0
:10132000E06988B36968C1F38101022944D00228C9
:10133000C6F8608004D0FFF7DDFB044638E034E0F7
:10134000FFF7D8FB074604E0FFF7D4FBC01B0228D9
:101350002BD828688001F7D4206AB0F5803F05D1EA
:101360006868A16820F4003008436860D4E9080187
:101370000843696821F4741108436860C6F86090F6
:10138000FFF7B8FB044606E025E000BFFFF7B2FB1D
:10139000001B022809D828688001F7D51BE000BF90
:1013A000FFF7A8FB001B022802D90320BDE8F88F35
:1013B00028688001F4D40EE00128F7D06868226A1A
:1013C00000F48031914204D1616A00F470108842C7
:1013D00001D00120EAE70020E8E700000010024009
:1013E0000000424280044242180000200070004089
:1013F00070B5040009D0606A002540B125616561BF
:10140000A56294F8510040B10CE0012070BD606805
:10141000B0F5827FF4D0E561F2E784F850502046C1
:1014200000F040F8022084F851002068016821F0A3
:1014300040010160A088218900F4827001F4044118
:101440000843A18901F400610843217C01F00201F5
:101450000843217D01F001010843218B01F4007153
:101460000843217F01F03801084394F8201001F06F
:1014700080010843218D01F4005108432168086070
:10148000A069042101EA1040216848602068C16910
:1014900021F40061C1616565012084F851000020DC
:1014A00070BD000070B586B00024009401940294D1
:1014B0000394264E05682649022203232548B54297
:1014C0001FD18C6944F480548C618C6904F480547D
:1014D00004948C6944F008048C618969039301F0D9
:1014E000080104912821CDE900126946FFF70CFAA2
:1014F0001948416841F0E06141F00101416006B0E6
:1015000070BD164EB542FAD1CD6945F48045CD6126
:10151000CD6905F4804504958D6945F008058D6118
:101520008969039301F0080104914FF42041CDE94A
:10153000001269460546FFF7E7F93014CDE90004CB
:10154000694628460294FFF7DFF9D8E700300140EA
:1015500000100240000C0140000001400038004033
:101560002DE9F84F044690F8500000271D46164616
:10157000894601280DD04FF0010B84F850B0FFF7D9
:10158000B9FA804694F85100BA46012804D00227DF
:1015900093E00220BDE8F88FB9F1000F73D0002E60
:1015A00071D0032084F85100C4F854A0C4F83090DE
:1015B000A686E686C4F838A0A4F83CA0A4F83EA00D
:1015C000C4F844A0C4F840A0A068B0F5004F09D109
:1015D0002068016821F0400101602068016841F441
:1015E0008041016020680168490603D4016841F028
:1015F00040010160E068B0F5006F606803D030B36F
:10160000012E24D041E008B1012E1CD1206B2168AD
:101610000088C86006E020688168890709D5216BC9
:101620000988C160206B801C2063E08E401EE0862C
:1016300009E0FFF75FFAA0EB0800A84202D3681C9C
:1016400001D031E07DB3E08E0028E4D120E0206BB2
:1016500021680078087306E020688168890709D549
:10166000216B09780173206B401C2063E08E401EC3
:10167000E0860AE0FFF73EFAA0EB0800A84203D399
:10168000681C02D010E017E06DB1E08E0028E3D1B5
:1016900042462946204600F02DFD08B12020606515
:1016A000A06818B106E0FFE7032706E02068C168DC
:1016B00080680090606D00B1012784F851B084F813
:1016C00050A0384666E710B5401EB0F1807F01D3C8
:1016D000012010BD4FF0E02460610F21601700F081
:1016E0004EFF0020A06107202061002010BD70B5D2
:1016F000040004D094F83D00002510B106E001205C
:1017000070BD84F83C50204600F022F8242084F874
:101710003D002068C16821F40051C160204600F0FE
:10172000D1FE2068016921F490410161206841697E
:1017300021F02A0141612068C16841F40051C16073
:101740002564202084F83D0084F83E00002070BD10
:1017500030B585B00024009401940294039400688D
:101760001449884224D11448816941F4804181613F
:10177000816901F480410491816941F00401816132
:1017800080690E4D00F0040004904FF4007000904A
:10179000022001900320039069462846FFF7B4F821
:1017A0002815CDE90004694628460294FFF7ACF8F5
:1017B00005B030BD00380140001002400008014073
:1017C000FEE700002DE9FC411E4C010A8DF80010D7
:1017D0008DF8040060880021401E83B22088401EDE
:1017E00082B2084600F0C0F9DFF85C800022802158
:1017F00045464046FFF778F9012240212846FFF789
:1018000073F900264FF6FF7712E000250CE03B4607
:10181000012269460D48FFF7A3FE3B46012201A9BC
:101820000A48FFF79DFE6D1C2088A842EFD8761C61
:101830006088B042E9D8012280214046FFF754F980
:10184000BDE8FC811C000020000C0140E0000020ED
:1018500038B5034C2488009400F07CF838BD0000B3
:10186000000000202DE9FE4F161ACDE900104FF0C0
:1018700000085D1A47464FF0FF30002E02DD4FF0A2
:10188000010102E003D14FF000018B4602E08346E4
:10189000C6F10006002D02DD4FF0010002E003D189
:1018A0004FF00000824602E08246C5F10005AE42DC
:1018B00001DD344600E02C46601C4FF00009029028
:1018C00018E0009881B2019880B200F019F8B04495
:1018D0002F44A04504DD0198A8EB0408584401906A
:1018E000A74203DD00983F1B5044009009F101001E
:1018F0001FFA80F902998945E3DDBDE8FE8F0000FB
:1019000010B500F02DF903480088BDE8104000F044
:101910004FBA0000000000202DE9F0411C4615469A
:101920000E4607460B46FFF79DFF3A4623463146D3
:101930001046FFF797FF23462A4619463846FFF719
:1019400091FF2A4623463146BDE8F0411046FFF795
:1019500089BF00002DE9F041141A641CA6B25C1A7C
:10196000641CA7B2DDF8188000F0FEF800250AE03C
:10197000002404E0404600F01BFA641CA4B2B44208
:10198000F8D36D1CADB2BD42F2D306484188008841
:10199000491EBDE8F041401E8BB282B200210846CC
:1019A00000F0E2B81C00002010B500F0C3F83620AB
:1019B00000F0AAF9002000F089F93A2000F0A4F91B
:1019C000052000F083F9B22000F09EF90C2000F011
:1019D0007DF90C2000F07AF9002000F077F933202F
:1019E00000F074F9332000F071F9B72000F08CF9A1
:1019F000352000F06BF9BB2000F086F9192000F0CB
:101A000065F9C02000F080F92C2000F05FF9C220B9
:101A100000F07AF9012000F059F9C32000F074F9C0
:101A2000122000F053F9C42000F06EF9202000F0DD
:101A30004DF9C62000F068F90F2000F047F9D020DA
:101A400000F062F9A42000F041F9A12000F03EF975
:101A5000E02000F059F9D02000F038F9042000F01F
:101A600035F90D2000F032F9112000F02FF9132084
:101A700000F02CF92B2000F029F93F2000F026F986
:101A8000542000F023F94C2000F020F9182000F039
:101A90001DF90D2000F01AF90B2000F017F91F2096
:101AA00000F014F9232000F011F9E12000F02CF9E6
:101AB000D02000F00BF9042000F008F90C2000F011
:101AC00005F9112000F002F9132000F0FFF82C2096
:101AD00000F0FCF83F2000F0F9F8442000F0F6F8A0
:101AE000512000F0F3F82F2000F0F0F81F2000F054
:101AF000EDF81F2000F0EAF8202000F0E7F823209E
:101B000000F0E4F8212000F0FFF8112000F0FCF8CC
:101B1000292000F0F9F8002000F024F90122D10377
:101B20000348FEF7E1FFBDE810400020FFF74ABE82
:101B30000008014010B5094C002210212046FEF794
:101B4000D3FF1420FEF7CEFE012210212046FEF71F
:101B5000CBFFBDE810401420FEF7C4BE000C0140CE
:101B60000B460246AFF300802DE9F041DFF85080CC
:101B700007461C4615460E4698F80A0000F0C4F8C1
:101B8000380A00F0A3F8F8B200F0A0F8280A00F034
:101B90009DF8E8B200F09AF898F80C0000F0B4F85C
:101BA000300A00F093F8F0B200F090F8200A00F04C
:101BB0008DF8E0B200F08AF8BDE8F04100F0C2B85C
:101BC0001C0000202DE9FF4F81B08A460EA9DFF8E6
:101BD000EC9091E83100203800F0FF080AEB040097
:101BE000401E83B20198B9F800B000EB5400401ECB
:101BF00082B251460198FFF7B7FF002D4FF0000564
:101C000049D12F4808EB480100EB810A00F27440EB
:101C100000EB081817E00C2C03D018F8057000260C
:101C20000CE01AF80570FAE7F80701D0039800E015
:101C3000049800F0BDF87F08761CF6B2B6EB540F9E
:101C4000F2D36D1CEDB2A542E5D326E00C2C08D0F2
:101C50001C4901EB08100026475D0AEB05000090C7
:101C600014E0174808EB480100EB8100F3E7039804
:101C7000A9F80000F80706D0009881B20198304416
:101C800080B2FFF73DFE7F08761CF6B2B6EB540F2C
:101C9000EDD36D1CEDB2A542D8D30B48A9F800B026
:101CA0004188008805B0491EBDE8F04F401E8BB248
:101CB00082B200210846FFF757BF00000000002055
:101CC000AC270008202C00081C00002031B50C4C6B
:101CD000002280212046FEF707FF012240212046F6
:101CE000FEF702FF4FF6FF73012269460548FFF732
:101CF00037FC012280212046FEF7F6FE38BD0000A9
:101D0000000C0140E000002031B50C4C0022802185
:101D10002046FEF7E9FE002240212046FEF7E4FEC1
:101D20004FF6FF73012269460548FFF719FC0122AF
:101D300080212046FEF7D8FE38BD0000000C01408F
:101D4000E00000200148007AFFF7DEBF1C00002001
:101D500010B50C46FFF7D8FFE0B2BDE81040FFF722
:101D6000B5BF000011492A224A812B228A812C22E8
:101D70000A818722F02358B101280DD002280FD004
:101D8000032811D10B804A80A0213620FFF7E0BF45
:101D90000A804B800021F8E70B804A806021F4E73D
:101DA0000A804B80C021F0E7704700001C00002033
:101DB0007CB5010A114C8DF800108DF8040000224A
:101DC00080212046FEF790FE012240212046FEF7AA
:101DD0008BFE4FF6FF752B46012269460848FFF738
:101DE000BFFB2B46012201A90548FFF7B9FB0122E1
:101DF00080212046FEF778FE7CBD0000000C0140EB
:101E0000E00000203EB500241048009401940294A4
:101E10000D498460016004730475012505614FF468
:101E200060214460C161FEF78BFC08B1FEF758FAEF
:101E30000095CDE9015469460448FEF703FC0028EB
:101E400001D0FEF74DFA3EBD002401402C000020D9
:101E50003EB5002411480094019402940E49846018
:101E6000016004730475012505614FF4602144602D
:101E7000C161FEF765FC08B1FEF732FA0520CDE935
:101E80000005694602940548FEF7DCFB002801D0F6
:101E9000FEF726FA3EBD0000002801405C0000204D
:101EA0002DE9F04385B000242E480094019402945B
:101EB0000394816941F010018161816901F0100191
:101EC0000491816941F020018161816901F0200163
:101ED0000491816941F004018161816901F004018B
:101EE0000491816941F0080181618069DFF878809F
:101EF00000F0080048F25815049000222946404698
:101F0000FEF7F2FDDFF8649041F6D0070022394673
:101F10004846FEF7E9FD4FF40050CDE9000469465C
:101F200013480294FEF7F0FC009502260125039663
:101F3000CDE9015469464046FEF7E6FC40F2024016
:101F4000CDE90004694648460294FEF7DDFC00979F
:101F50000396CDE9015469464846FEF7D5FC05B025
:101F6000BDE8F0830010024000080140000C014071
:101F7000001001400D4810B50B4901600C4941604B
:101F800000214FF480428160C0E903124161816108
:101F9000C1610162FEF7B4FD002803D0BDE8104026
:101FA000FEF79EB910BD0000005400408C000020D8
:101FB000A0860100114810B50F4901604FF48271ED
:101FC00041604FF40041816000210222C0E9031208
:101FD0001202C0E905120822C0E9072141628162AC
:101FE0000A21C162FFF704FA002803D0BDE81040BF
:101FF000FEF776B910BD000000300140E00000207F
:102000000F4810B50D4901604FF482714160002105
:102010008160C1604FF400720161C0E90512C161C5
:102020000162416281620A21C162FFF7E1F9002881
:1020300003D0BDE81040FEF753B910BD0038004092
:10204000380100200C4810B50A4901604FF4E13115
:102050004160002181600C22C160C0E904128161ED
:10206000C161FFF744FB002803D0BDE81040FEF734
:1020700037B910BD0038014090010020FEE7FEE7AF
:1020800070470000FEB515A0FEF7E8F8174A1E21BC
:102090001420FEF78BFA102515A0CDE900050124C8
:1020A0004FF6E07633461F224B210294202000F0A9
:1020B0008FF80E4A1E214620FEF778FA0CA0CDE9D3
:1020C000000533461F224B210294522000F080F875
:1020D000BDE8FE404FF47A70FEF704BCCDBCC6AC40
:1020E000CFD4CABEB2E2CAD4000000005C3E0008F1
:1020F0005151000038B50B46009204460022802161
:1021000000F008F8002804D0606D40F02000606501
:10211000032038BD2DE9F8431E4691468846044603
:10212000089DFEF7E7FC401B351AFEF7E3FC074667
:1021300025480068C0F3CB30684338E0701C37D0C6
:10214000FEF7D8FCC01BA84203D215B1009860B3BB
:102150002CE02068416821F0E00141606068B0F542
:10216000827F0BD1A068B0F5004F02D0B0F5806F30
:1021700004D12068016821F040010160A06AB0F537
:10218000005F09D12068016821F4005101602068D6
:10219000016841F400510160012084F851000020E1
:1021A00084F850000320BDE8F8830025401E00900D
:1021B0002068816838EA010004D000214945BDD17A
:1021C0000020F0E70121F9E7180000207047000027
:1021D0002DE9FF4F83B0884610A9044691E86004BA
:1021E000814628782C4F9B46002852D03888A0EB97
:1021F0005601A1424DDB79888A1B424549DB29788B
:10220000802915D9801BA04243DB424541DB202EAB
:1022100033D0CDE9005A059A182E5B464146204638
:1022200034D0FEF75FF8A01984B215F8020FDBE78F
:102230000D290DD0102E12D910228DE806045B4610
:1022400041462046059AFFF7BDFC0834A4B211E0D0
:1022500008EB06001FFA80F84C466D1C0AE08DE87A
:1022600042045B4641462046059AFFF7ABFC04EB6F
:10227000560084B215F8010FB6E7CDE9005A5B4667
:1022800041462046059AFEF71BF9CCE7FEF7A0F879
:10229000C9E707B0BDE8F08F1C000020FEF72CBD99
:1022A00030B593B028216846FDF743FF14210AA8F2
:1022B000FDF73FFF002501200F95109511950104B2
:1022C00012958DE8230004904FF4E010CDE908103A
:1022D000022407946846FEF7FBFE08B172B6FEE7DB
:1022E0000AA90F2081E831004FF48060CDE90D0587
:1022F00002210AA8FEF700FE08B172B6FEE74FF40D
:10230000004011900F940FA8FEF780FD002801D027
:1023100072B6FEE713B030BD704700002DE9FE43F2
:102320004FF6FF70274C00900021638822880846F2
:10233000FFF710FB102624A0CDE9000601254FF67B
:10234000E07843461F221E2102951420FFF740FF2C
:102350004FF4784700970021638822880846FFF7EA
:10236000F9FA1BA0CDE9000643461F221E21029563
:102370001420FFF72DFF4FF4FC60009000216388CC
:1023800022880846FFF7E6FA13A0CDE90006434687
:102390001F221E2102951420FFF71AFF1F20009014
:1023A0000021638822880846FFF7D4FA0CA0CDE903
:1023B000000643463A461E2102951420FFF708FF07
:1023C000BDE8FE831C000020424C2054657374005D
:1023D0005245442000000000475245454E20000071
:1023E000424C5545200000002DE9F84300242EA062
:1023F000FDF734FF304D4FF6FF78CDF80080688848
:102400002A88143883B214210020FFF7A3FA2B4E38
:102410002B4F00BF36F81400388004EB8400698825
:1024200000EBC40000EB5101A1F10A0083B228883F
:102430002839400800EB0410A0F10A02283892B2B3
:1024400089B280B2FFF768FA641CE4B2052CE1D3CC
:10245000CDF8008068882A88143883B214210020BF
:10246000FFF778FA5FF0000436F81400388004EBC8
:102470008400698800EBC40000EB5101A1F10A005F
:1024800083B228882839400800EB0410A0F10A0222
:10249000283892B289B280B2FFF7DAF9641CE4B24C
:1024A000052CE1D3BDE8F883475549BED8D0CECC42
:1024B000EEB3E4B2E2CAD4001C0000200200002007
:1024C0000000002070B5044600680169E26821F44C
:1024D0004051114301612169A068084361690843C3
:1024E0002168CA6841F20C639A430243CA602068BB
:1024F0004169A26921F44071114341611E4920687C
:10250000884202D1FEF79EFD01E0FEF78BFD00EB55
:10251000C00101EB0012606864218000B2FBF0F39F
:10252000B3FBF1F36FF018067343B2FBF0F5B2FBA7
:10253000F0F605EB8305322303EB0515B5FBF1F54A
:10254000B6FBF1F605F0F00505EB0615B2FBF0F66B
:10255000B2FBF0F0B0FBF1F06FF01802504306EB65
:10256000800003EB0010B0FBF1F0216800F00F00D9
:102570002844886070BD000000380140FEE709076C
:10258000090E002804DB00F1E02080F800147047F9
:1025900000F00F0000F1E02080F8141D704702E009
:1025A00008C8121F08C1002AFAD1704770470020DE
:1025B00001E001C1121F002AFBD17047FEF7A4FB06
:1025C000FFF76EFEFFF76CFCFFF71CFCFFF740FC0B
:1025D000FFF7D0FCFFF7EEFCFFF712FDFFF732FD2F
:1025E00040F6C410FEF77EF901220C4CD5022946B4
:1025F0002046FEF779FAFFF7D7F900BF00F010F890
:1026000000F068F8FFF78AFEFFF7EEFEFFF73AFDED
:10261000002229462046FEF767FAEFE7000C01404A
:10262000FEB51DA0FDF71AFE10251FA0CDE900057F
:102630001F230124DE023246172102940020FDF7F9
:10264000DFFF15A0CDE900051F23324628210294A3
:102650000020FDF7D5FF17A0CDE900054FF4FC667B
:102660001F233246392102940020FDF7C9FF14A030
:10267000CDE900051F2332464A2102940020FDF7D0
:10268000BFFF11A0CDE900051F231A465B2102946C
:102690000020FDF7B5FFFEBDD7DBBACFB2E2CAD44A
:1026A000B3CCD0F200000000C8ABB6AFB5E7D7D3CB
:1026B00000000000322E30222053543737383900C2
:1026C0003234305833323000323031392D31322DFE
:1026D00032310000FEB54EF67D763046FFF772F8D7
:1026E0001C23A92208214720FDF776FD10251FA0F5
:1026F000CDE9000501241F234FF61F020A21029491
:102700000020FDF77DFF3A23A92226214720FDF76F
:1027100063FD1AA0CDE9000500223346282102946A
:102720001046FDF76DFF5823A92244214720FDF7ED
:1027300053FD16A0CDE9000533461F224621029421
:102740000020FDF75DFF7623A92262214720FDF7D7
:1027500043FD12A0CDE9000533464FF478426421D1
:1027600002941020FDF74CFFFEBD0000CDBCD0CE82
:10277000CFD4CABEB2E2CAD400000000B4BFC9AB15
:10278000CCEEB3E4B2E2CAD400000000D6D0CEC48E
:10279000CFD4CABEB2E2CAD400000000CDBCC6ACE1
:1027A000CFD4CABEB2E2CAD40000000000000000CC
:1027B0000000000000000000000004040404040401
:1027C0000004000000140A0A0000000000000000DD
:1027D000000014143F140A3F0A0A000000041E15EA
:1027E00005060C14150F0400000012150D0A142C18
:1027F0002A1200000000040A0A1E151509360000FE
:10280000000202010000000000000000002010088B
:102810000808080808102000000204080808080832
:102820000804020000000004150E0E15040000004C
:1028300000000404041F0404040000000000000061
:10284000000000000002020100000000001F000064
:102850000000000000000000000000000002000076
:1028600000100808080404020202010000000E1112
:1028700011111111110E00000000040604040404DB
:10288000040E000000000E1111080402011F0000D8
:1028900000000E11100C1010110E00000000080CAA
:1028A0000A0A091E0818000000001F01010F10107D
:1028B000110E000000000E09010F1111110E000091
:1028C00000001F09080404040404000000000E11A5
:1028D000110E1111110E000000000E1111111E1029
:1028E000120E0000000000000400000000040000C0
:1028F0000000000000040000000404000020100894
:102900000402040810200000000000001F00001F47
:10291000000000000002040810201008040200005B
:1029200000000E11110804040004000000000E1144
:102930001915151D011E0000000004040C0A0A1ED2
:102940001233000000000F12120E1212120F0000BC
:1029500000001E1101010101110E000000000F1204
:1029600012121212120F000000001F120A0E0A02A9
:10297000121F000000001F120A0E0A0202070000C8
:1029800000001C1201013911120C0000000033126A
:10299000121E12121233000000001F04040404046B
:1029A000041F000000003E08080808080809070086
:1029B000000037120A060A0A123700000000070258
:1029C00002020202223F000000001B1B1B1B151508
:1029D0001515000000003B1216161A1A12170000F7
:1029E00000000E1111111111110E000000000F1244
:1029F000120E02020207000000000E111111111741
:102A0000190E180000000F12120E0A1212370000E1
:102A100000001E1101060810110F000000001F1514
:102A200004040404040E00000000331212121212F7
:102A3000120C000000003312120A0A0C04040000F9
:102A400000001515150E0A0A0A0A000000001B0AEC
:102A50000A04040A0A1B000000001B0A0A040404FA
:102A6000040E000000001F0908040402121F0000E9
:102A7000001C04040404040404041C0000020202F8
:102A80000404080808100000000E080808080808D8
:102A900008080E0000040A0000000000000000000A
:102AA00000000000000000000000003F00040000E3
:102AB000000000000000000000000000000C121CDC
:102AC000123C000000000302020E1212120E00005F
:102AD00000000000001C1202021C00000000181080
:102AE000101C1212123C000000000000000C121E0C
:102AF000021C000000003804041E0404041E000030
:102B000000000000003C120C021E221C0000030208
:102B1000020E121212370000000004000006040426
:102B2000040E000000000800000C08080808080750
:102B300000000302023A0A0E1237000000000704E8
:102B400004040404041F000000000000000F151519
:102B50001515000000000000000F121212370000CF
:102B600000000000000C1212120C00000000000017
:102B7000000F1212120E020700000000001C1212B9
:102B8000121C103800000000001B060202070000A3
:102B900000000000001E020C101E000000000004D7
:102BA000040E04040418000000000000001B1212B0
:102BB000123C0000000000000037120A0C04000064
:102BC000000000000015150E0A0A000000000000B9
:102BD000001B0A040A1B0000000000000037120A54
:102BE0000C04040300000000001E0804041E000082
:102BF0000018080808040808080818000808080849
:102C00000808080808080808000604040408040462
:102C10000404060002251800000000000000000067
:102C200000000000000000000000000000000000A4
:102C3000000000080808080808080000181800002C
:102C400000486C241200000000000000000000009A
:102C50000000002424247F1212127F12121200009E
:102C60000000081C2A2A0A0C1828282A2A1C0808EE
:102C700000000022251515152A585454542200002E
:102C80000000000C1212120A76252911916E000024
:102C90000006060403000000000000000000000021
:102CA00000402010100808080808081010204000F4
:102CB0000002040808101010101010080804020088
:102CC0000000000008086B1C1C6B080800000000D6
:102CD00000000000080808087F0808080800000035
:102CE00000000000000000000000000006060403D1
:102CF0000000000000000000FE00000000000000D6
:102D000000000000000000000000000006060000B7
:102D10000000804040202010100808040402020037
:102D2000000000182442424242424242241800005D
:102D3000000000080E08080808080808083E0000FF
:102D40000000003C4242422020100804427E000065
:102D50000000003C4242201820404042221C00005B
:102D6000000000203028242422227E202078000029
:102D70000000007E0202021A26404042221C00008F
:102D8000000000382402021A2642424224180000A1
:102D90000000007E22221010080808080808000021
:102DA0000000003C4242422418244242423C0000BF
:102DB000000000182442424264584040241C000095
:102DC00000000000000018180000000018180000A3
:102DD00000000000000000080000000000080804D7
:102DE00000000040201008040204081020400000E9
:102DF0000000000000007F0000007F0000000000D5
:102E00000000000204081020402010080402000006
:102E10000000003C424246402010100018180000FC
:102E20000000001C225A555555552D42221C000009
:102E30000000000808181414243C224242E7000055
:102E40000000001F2222221E22424242221F0000B6
:102E50000000007C4242010101010142221C0000ED
:102E60000000001F2242424242424242221F000012
:102E70000000003F4212121E12120242423F0000A6
:102E80000000003F4212121E12120202020700004E
:102E90000000003C2222010101712122221C0000BD
:102EA000000000E7424242427E42424242E70000C6
:102EB0000000003E0808080808080808083E00004E
:102EC0000000007C10101010101010101010110FC6
:102ED0000000007722120A0E0A1212222277000046
:102EE000000000070202020202020202427F00000A
:102EF00000000077363636362A2A2A2A2A6B000046
:102F0000000000E346464A4A5252526262470000BD
:102F10000000001C2241414141414141221C00006E
:102F20000000003F424242423E020202020700000D
:102F30000000001C2241414141414D53321C6000C0
:102F40000000003F4242423E1212222242C70000CD
:102F50000000007C4242020418204042423E000031
:102F60000000007F4908080808080808081C00003D
:102F7000000000E74242424242424242423C0000DC
:102F8000000000E74242222424141418080800001C
:102F90000000006B4949494955553622222200005C
:102FA000000000E7422424181818242442E70000F7
:102FB000000000772222141408080808081C0000EA
:102FC0000000007E2120101008040442423F00004F
:102FD00000780808080808080808080808087800A1
:102FE00000000202040408080810102020204040BD
:102FF000001E1010101010101010101010101E00D5
:103000000038440000000000000000000000000044
:10301000000000000000000000000000000000FFB1
:103020000006080000000000000000000000000092
:10303000000000000000003C4278444242FC0000D6
:10304000000000030202021A26424242261A000031
:103050000000000000000038440202024438000072
:1030600000000060404040784442424264D8000082
:10307000000000000000003C427E0202423C0000D2
:10308000000000F08808087E08080808083E0000D4
:10309000000000000000007C22221C023C42423C56
:1030A000000000030202023A4642424242E70000A8
:1030B0000000000C0C00000E08080808083E000084
:1030C0000000003030000038202020202020221E68
:1030D0000000000302020272120A16122277000098
:1030E0000000000E0808080808080808083E00004C
:1030F000000000000000007F9292929292B70000C0
:10310000000000000000003B4642424242E700004F
:10311000000000000000003C42424242423C0000ED
:10312000000000000000001B26424242221E02074F
:10313000000000000000007844424242447840E031
:1031400000000000000000774C040404041F00008D
:10315000000000000000007C42023C40423E0000B3
:10316000000000000008083E0808080808300000B9
:1031700000000000000000634242424262DC0000A6
:1031800000000000000000E74224241408080000AA
:1031900000000000000000EB4949555522220000C4
:1031A000000000000000007624181818246E0000AB
:1031B00000000000000000E742242414180808075B
:1031C000000000000000007E22100808447E00007D
:1031D00000C0202020202010202020202020C000FF
:1031E00010101010101010101010101010101010DF
:1031F000000608080808081008080808080806005B
:103200000C32C200000000000000000000000000BE
:10321000C9EE000027FC140414A4811042084040A9
:10322000104017FC2040E0E0215022482C4620406E
:103230000040DBDA11041124112411241124FD248F
:10324000112411241124112411241D24E1244224C9
:1032500002040404CAD00200010000007FFC010047
:10326000010001003FF82108210821082108212838
:10327000211001000100C8AB0000000001800240E5
:103280000430180860061FF90100010001003FF832
:103290000100010001007FFEB6AF00000000002029
:1032A0003E20007C002200227F22102210221222C7
:1032B0001222224223423D82009CB5E70000010019
:1032C00001001FF0610C410441047FFC41044104F2
:1032D00041047FFC01000102010201FCD7D3000080
:1032E00000003FF8001000600080010000807FFEB9
:1032F0000040004000200020002018400780BCBC97
:1033000010201020102013FEFC201020102015FC8F
:1033100018843088D048105010201050518826064C
:10332000CAF501000120011001107FFC0380054057
:10333000054009201110210841048102010001000B
:103340000100D3D002000200FFFE040004000FF0D1
:10335000081018102FF0481088100FF008100810EF
:1033600008500820CFDE00007BF84A08520853F8C6
:10337000620852084BF84A444A486A3052204210C8
:10338000428843064200B9AB0080048004800840B4
:103390000840102020104208820604000440082043
:1033A00010203FF010100000CBBE00003FF80008D6
:1033B00000087FE8000800081F881088108810881F
:1033C00010881F88108800280010BBB6008000807D
:1033D000FC8004FC050449082A401440104028A041
:1033E00024A045108110020804040802D3AD000097
:1033F0002080133C122402240224F22412241224DA
:1034000012B4132812201020282047FE0000C4FA0E
:103410000900090011FC3204544899501148124423
:1034200014441140108002005104511290120FF008
:10343000B4BF00000020102013FE202026244A24C0
:103440007A241224222423FC7C20002204227822C5
:10345000003CC9AB0000000004000FF01020202049
:103460007FFC20842084208420843FF820002002D8
:1034700020021FFECCEE00000000204023FE204072
:1034800079FC220423FC220423FC220423FC3A04BA
:1034900065FA01980204B3E40000010001007FFE18
:1034A00002200410040808043FFC044204400440C5
:1034B000044208421042607EBED800000000207E18
:1034C0003E804880488048FE48827F8208820C8285
:1034D00014FA12842280218040FED0CE0000000029
:1034E0007F842208223022C0220222047FC8223098
:1034F00022C222022204220822304040BBAD00003A
:1035000000007FFE00000FF0111011101110511279
:103510005FF25112511251124FF240027FFCD4B2AD
:10352000000000007FFE47E24812481247E24FF2D7
:10353000501250125112511242924472580A3FFCDA
:10354000CDBC000000003FFE440247F24C22536213
:10355000408243625E1A41824062430240C240227E
:103560003FFCC6AC000000402040204020403FFE11
:103570002000200020003FE020102010201020100C
:1035800040104010CFD4000000003FFC2004200475
:103590003FFC200420041FF8244414481448144815
:1035A0000C5004407FFECABE000000003FFC00003B
:1035B000000000007FFE00800890088810881084BA
:1035C0002084208240820780B2CB000000200820A7
:1035D0007FFE002000783F881108089009207FFEB8
:1035E000018003400D30310C4002B5A500000010F1
:1035F000081004203FF8210421043FFC2104210489
:103600003FF801007FFE010001000100D6D000005C
:103610000100010001003FFC2104210421042104D8
:10362000210421043FFC0100010001000100D3A29C
:103630000000000008207FFE0820092001003FF85C
:103640002108210821081FF4014002200C10700EEF
:10365000CEC400000100010000803F7C081008106B
:1036600004100420022002400180018002601C1826
:10367000E006D7DB00000000102011FE220222022B
:1036800049FC5800300013FE2528792401240D241C
:10369000722202A2BACF0000000001800240043072
:1036A000180860061FF800001FF8200420042004FA
:1036B000200420041FF8C1C10000010001007FFEAA
:1036C00000003FF820083FF83FF8400647C2482472
:1036D000082008221022603EB6C8000000000080CA
:1036E0003FFE44105FFC4410441043F040005FF87C
:1036F0004408423041C04360BC1EB2E200000000FA
:1037000067C2145205520552C55225520552055240
:1037100015521752228222424442483ECAD4000027
:1037200000002014101417FE00120010601013F097
:10373000109010901090149214EA1F0A0006B3CC57
:103740000000000019FE7202120212027DFC180035
:103750001BFE3420502053FE10201020102013FE9A
:10376000D0F20000000000803FFE400047FC42080D
:10377000413040C05FFE40424042404440484040EB
:103780004440B5F70000000023FE122202FA022294
:10379000E22212FE1272128A128A128A16BA1A4291
:1037A0001202040EB9E20000010001041108090828
:1037B000091009207FFE04400440044004400842F0
:1037C00008421042607CB0E60000000048FE49005C
:1037D000490049007EFE41824144794445284528FC
:1037E0004510452846440382C8A800001000100078
:1037F00013FC7D0411041904188434885048505077
:1038000010201050108813041402CBF9000000009F
:103810003F7C204020403E40227E224422442244DD
:103820003E8420842084408441044204C6C10000B8
:103830003FF8200820083FF8241022202FF82220EB
:1038400022203FFC22204220442084200820C4BBA8
:1038500004407FFC04401FF010101FF010101FF0F8
:103860000400FFFE11103FF8D11611501120010085
:10387000D0FD2080108010FE0100FE0021FC2024DD
:103880003C2424A024A024BC24A024A04560553EB0
:103890008A00D7AA202020202020FDFC4020504074
:1038A00093FEFC40108011FC1C04F0885050102046
:1038B00010101010BFAA00007FFC0820082008206C
:1038C00008200820FFFE08200820082008201020DB
:1038D000102020204020D4B4000027FE14201440E3
:1038E00085FC450445FC150415FC2524E42024A88A
:1038F00029242A2230A00040D2BA0080204017FE9E
:1039000011208120423C4244166412942348E2482C
:1039100022302220225022880306BEA70FE0082072
:1039200008200FE0082008200FE000007EFC428401
:1039300042847EFC428442847EFC4284CDF80000B6
:103940007FFC40044004421452944A5444244424CA
:103950004A544A5452946104400440144008D5BE6D
:103960001020082008207E20003E0420442044200F
:1039700025FC290429040F04F104410401FC01047D
:10398000B0B410401020102013FEFA02144410406E
:103990001BFE3088D088110810D01020105050889D
:1039A0002304BCFC201020103B7C211441FE7A141F
:1039B000A27C2710F97C251025FE22102A10350044
:1039C00028FE0000D0A310401020102011FEFC00A3
:1039D000108831043A0254885088905010501020BA
:1039E000105010881306D7BC01404120212023FE2F
:1039F000022016201BFC1220222023FCE220222081
:103A0000222023FE22000200B4A5202020207820BE
:103A100049FC91247D24552455247DFC55245420B3
:103A20007C28542457FE45028C00C3FE111011104F
:103A300017FC1110FC0013F8120817F81A0833F8D5
:103A4000D04017FC10A0111052082406C9EE000047
:103A5000000000001000000800080C7FFC0440106B
:103A600001C8A002186042301832231812C3001493
:103A7000030004030C047FF0080F80080B40781348
:103A80006018332018631818831C190308180300E2
:103A9000000300000000DBDA00000000000004105A
:103AA0000C04180C04108C04108C04108C04108C62
:103AB00004D08C3F108C04108C04108C04108C04E7
:103AC000108C04108C04108C05F08C0E208C782047
:103AD0008C20408C00808C01000C02000C00000047
:103AE000CAD00000000000000030000018000018DC
:103AF0000800001C1FFFE000180000182007FFF05E
:103B00000418200418200418200418200418200485
:103B100018200418200418200418200418E00418A1
:103B200040001800001800000000D6D0000000007F
:103B3000000000000000000000180000180000183D
:103B4000000018003FFFFE30180630180630180637
:103B50003018063018063FFFFE3018060018000027
:103B600018000018000018000018000000000000F5
:103B700000000000CEC400000000000000000000B3
:103B80003800001C00000600FFFFFF0600300600A2
:103B9000300300600300600180C000C18000E300CA
:103BA000003600001C0000770003C1E01E003C60EE
:103BB0000007000000000000000000000000B2E26A
:103BC0000000000000000000000000004000032191
:103BD000FF33398333118333019B33C19B33719B93
:103BE00033199B33019B33019B33119B3319B3333F
:103BF000303033306C0330C6036383032E01BE00C4
:103C00000000000000000000CAD400000000000016
:103C10000000000000004000D83000CE1800C21C98
:103C200000C001FFFF0000C0F800C01800C019FF6D
:103C3000C01818401818601918601B18611E183138
:103C40001C1FB139F01910000F0000000000000027
:103C50000000D7D6000000000006000000030000AE
:103C60000000C0000001C0C0000107C00001FF004B
:103C7000021FFE0007F01C0007C070000F00E000EC
:103C80000E03F0001C0FF0003C0F70003C00E00041
:103C90001800C0000000C0000000C000000060006C
:103CA00000002000000037000001FF00007FF80046
:103CB00007F830001F8030000080300000C0300066
:103CC000006060000018E000000FC0000006000067
:103CD00000000000CCE50000000000000000000033
:103CE00000C0000000E0002001B800703FF8006153
:103CF000FFC000C3030001C60600038C06000308D2
:103D00000C0006080C000E18183F1E101BF31F9025
:103D10003F0700803C1C0190707C019060FE01A078
:103D2000C3F801A00FD803A00818036000180340CF
:103D3000001803C0001803800018030000180000DA
:103D400000180000001000000030000000300000EB
:103D5000000000000000B2E20000000000000000CF
:103D60000000000000000000020C1008071FF8040B
:103D700003BFF00201BC300303EC3003015C6003BD
:103D800000D8600300D860038098620361B84307DD
:103D900071B14306313243063376C3063A64C7062F
:103DA0003EECC0063E78C0063C3040067C70000603
:103DB00078E060067BFFF006F7C00006E40000062E
:103DC00040000006000000060000007C00008FF0AC
:103DD00000007C0000000000CAD4000000000000C9
:103DE00000000000000000003F0000007F80000095
:103DF0000180000000C0000000C0000000CE038071
:103E000000CFFFC000DD41800FFE0007FFFC000C6B
:103E100000F000180FC03E19FF40F311BC60833062
:103E20007FE003B1FE200333802003700030036085
:103E300000100360001807C0000C07C000040780D2
:103E4000000201000003000000010000000000006B
:103E5000000000000000000000000000FFFFFFFF66
:103E6000FFFFFFFFFFFFFFFFFFFFFFFFFFFFFFFF62
:103E7000FFFFFFFFFFFFFFFFFFFFBEF7FFFFDEFFBC
:103E800038C6928C8E6B6E6B107C96AD3CE7FFFF54
:103E9000FFFFFFFFFFFFFFFFFFFFFFFFFFFFFFFF32
:103EA000FFFFFFFFFFFFFFFFFFFFFFFFFFFFFFFF22
:103EB000FFFFFFFFFFFFFFFFFFFFFFFFFFFFFFFF12
:103EC000FFFFFFFFFFFFFFFFFFFF5DEF159D4F634C
:103ED0006C420A328829461925194521E8318E6B32
:103EE00038C6FFFFFFFFFFFFFFFFFFFFFFFFFFFFE2
:103EF000FFFFFFFFFFFFFFFFFFFFFFFFFFFFFFFFD2
:103F0000FFFFFFFFFFFFFFFFFFFFFFFFFFFFFFFFC1
:103F1000FFFFFFFFFFFFFFFF36A51053104B51536C
:103F20000F4B6C3AE93167212519E410A3086200B0
:103F30008308CB529AD6FFFFFFFFFFFFFFFFFFFF73
:103F4000FFFFFFFFFFFFFFFFFFFFFFFFFFFFFFFF81
:103F5000FFFFFFFFFFFFFFFFFFFFFFFFFFFFFFFF71
:103F6000FFFFFFFF3CE77063B363B87CF563114369
:103F70004D32EA2988212619051905190411041161
:103F8000E4108300A308728CFFFFFFFFFFFFFFFF19
:103F9000FFFFFFFFFFFFFFFFFFFFFFFFFFFFFFFF31
:103FA000FFFFFFFFFFFFFFFFFFFFFFFFFFFFFFFF21
:103FB000FFFFDBDE4B3AF042356C544BB1322E2A18
:103FC000EB21A92167190519041104110411041129
:103FD00004110519E4104200AF73FFFFFFFFFFFF5C
:103FE000FFFFFFFFFFFFFFFFFFFFFFFFFFFFFFFFE1
:103FF000FFFFFFFFFFFFFFFFFFFFFFFFFFFFFFFFD1
:104000005DEF09324C32104B8F324F2A2E2ACC19D9
:10401000891989214719051904110411C410C41004
:10402000041104110411E41042003184FFFFFFFF6A
:10403000FFFFFFFFFFFFFFFFFFFFFFFFFFFFFFFF90
:10404000FFFFFFFFFFFFFFFFFFFFFFFFFFFFFFFF80
:10405000EC5247194C320B2AEC21EC210C22915BDB
:10406000EE4A061126190419E410E410A729662166
:10407000A308051904110411E4108200F7BDFFFF25
:10408000FFFFFFFFFFFFFFFFFFFFFFFFFFFFFFFF40
:10409000FFFFFFFFFFFFFFFFFFFFFFFFFFFF35A554
:1040A0008308882188218921AA218A216B42718C69
:1040B000FFFF728C83080411C4082942FBDE5DEF08
:1040C000EC5A83080411041104118308E831DFFF5E
:1040D000FFFFFFFFFFFFFFFFFFFFFFFFFFFFFFFFF0
:1040E000FFFFFFFFFFFFFFFFFFFFFFFFBEF7C7312F
:1040F000C4102519261947194719A8298A52284A90
:1041000055ADFFFFE831A30805194D6B4D6BFFFF5F
:104110007DEF4521C410041104110411620076AD35
:10412000FFFFFFFFFFFFFFFFFFFFFFFFFFFFFFFF9F
:10413000FFFFFFFFFFFFFFFFFFFFFFFF96B56200DE
:104140000411041905110519C4088B4AB6B55DEFB1
:10415000F7BDFFFF8E6B62002942AA5A0842FFFF9B
:10416000FFFFCC528308041104110411A308AD52BF
:10417000FFFFFFFFFFFFFFFFFFFFFFFFFFFFFFFF4F
:10418000FFFF1CE7FFFFFFFFFFFFFFFF4E63620023
:10419000041104110411E41062008E63FFFFFFFF9D
:1041A000FFFFFFFFCF730100F39C2C6396B5FFFF69
:1041B000FFFF2D5B8300041104110411E41067213B
:1041C0003DEFFFFFFFFFFFFFFFFFFFFFF8BDB7B5AC
:1041D0009EEFCB52B394FFFFFFFFDFFFE831A30850
:1041E0000411041104110411A3084942FFF7FFF759
:1041F000FFFFFFFF6A4A01007284FFFFFFFFFFF726
:10420000DFEF093AA3080411041104110411051188
:1042100018BEFFFFFFFFFFFFFFFFFFFFF07B620005
:10422000E831C731410035A5FFFF5DEF4621C410DD
:104230000411041104110411E410A308769DFFF782
:10424000FFFFB7ADA308A308C7319EE7FFF7FFF74D
:1042500076A5A308E4100411041104110511051139
:1042600035A5FFFFFFFFFFFFFFFFFFFFDBDEA729F5
:104270008300C410C410C4101CE79EEF0511E410A5
:1042800004110411041104110419C408E510D16BC0
:10429000D16BC5086400A50843002B32779DB38419
:1042A0002519C4100411041104110411251926093B
:1042B000359DFFFFFFFFFFFFFFFFFFFFFFFFAF7316
:1042C00062000419051982000D5B8E9B62100511B6
:1042D000041104110419E41085000511C439815A30
:1042E000407B229C43AC03A4839B82728249C21808
:1042F000A400C500E4100419041105194719671139
:10430000EC5ABEFFFFFFFFFFFFFFFFFFDFFFDBDE1B
:10431000C410E41004110511A41801C08388E4003E
:1043200005190419C5084421438323D542FEE4FE40
:1043300027FF07FFA4FE64FE03FEA3FDE2FC42ECA0
:1043400083B32462E510C40804192619A81987212B
:104350000090D3BCFFFFFFFFFFFFFFFFDFFFFFFF6A
:10436000107C420005190511832801D044F8A348A8
:10437000E400C508445A02EDE2FD02FE66FE74FF49
:10438000B8FF73FFE7F6A6F645F6A4F5C3FC62FC9A
:10439000C2FCC2FCE3CBC449061188198701A49072
:1043A00001F8EC9AFFFFFFFFFFFFFFFFFFFFFFFF9A
:1043B000BEF7E83183000509824001C023F885F08B
:1043C000A348A400445A02FD23CCC2DC04FE28FE0C
:1043D00048F646F624F6E4F564FDE3FC62FCC2FC14
:1043E00002E402DCE2FCA47A48016701C47824F804
:1043F00002F884B07DE7FFFFFFFFFFFFFFFFFFFF35
:10440000FFFFDBDE2519A300C43802E022D844F800
:10441000A6F8A4786300432183728339829B21F537
:1044200061FD22FDE2FCA2FC42FC42FC42FC22AB0C
:104430008341C392045226012519A49844F823F815
:1044400002F8A4D09EEFFFFFFFFFFFFFFFFFFFFF7B
:10445000FFFFFFFF9AD68729A50043B822F823E083
:1044600065F8E8F807C983484200A300840063297F
:10447000A27A62B3A2CB62D302BB828A8339A40040
:10448000E500E500E508C46064D844F824F823F8A2
:1044900002F88388DBC6FFFFFFFFFFFFFFFFFFFF80
:1044A000FFFFFFFFFFFF3DE7505B083123E843F8C4
:1044B00044F065F809F9ABF989D10689A348421897
:1044C0000200420061008200620062008300A320BB
:1044D000C450A58885D865F844F844F823F823F833
:1044E00003D08210C7295DEFFFFFFFFFFFFFFFFF33
:1044F000FFFFFFFFFFFFFFFFFFFF6C32A53802D871
:1045000023F865F866F8A7F84AF90CFA4DFA4CEA70
:104510000BD2A9B968B147A927B107B907D1E7E814
:10452000C7F8A7F865F865F844F823F803F802D04F
:10453000A3280509C408EC5AFFFFFFFFFFFFFFFF98
:10454000FFFFFFFFFFFFFFFFFBDE0519C400A741D0
:10455000E6C003F886F8A7F887F886F8C7F829F9BF
:104560008AF9ABF9ABF98BF96AF929F908F9C7F8B7
:10457000A6F886F865F864F823F802F006B1252954
:10458000E400E41025192519149DFFFFFFFFFFFF2C
:10459000FFFFFFFFFFFFFFFF96AD6200820835952A
:1045A000BACE8BA244D025F887F8A7F8C7F8A7F8A9
:1045B00087F886F886F886F887F8A7F8A7F8A6F8A7
:1045C00085F865F864F824F064B80D93BBB6CF6342
:1045D00083080411E4106621493A5DEFFFFFFFFFF5
:1045E000FFFFFFFFFFFFFFFFD3944200E410BBCEAD
:1045F000FFFFBEE776B5CCAA07C145E045F846F80F
:1046000066F886F886F886F886F865F845F865F85D
:1046100065E844D043A8018882903CD7FFEF5595C8
:1046200083080411041105194619B394FFFFFFFF15
:10463000FFFFFFFFFFFFFFFFB394410086215DDF17
:10464000FFFFFFFFFFFFDFE77AC6D3B44EB32AC2F6
:1046500068D1E6E0A6E8A5E8A5E8E6D888C906A9F5
:1046600022A802A800A000C800D8F7E5FFE7F8AD2F
:10467000C410E4100411E41005118B4AFFFFFFFF82
:10468000FFFFFFFFFFFFFFFF55A54100A7295DDFEB
:10469000FFF7FFFFFFFFFFFFFFFFFFFFFFEF7DDFE4
:1046A000DBCE59CEF8CDD7CDF7C579CEFBBEABA2C8
:1046B00003F045F842D043E800F072D4FFDF39AE92
:1046C000E410E4100411E41005118729FFFFFFFF37
:1046D000FFFFFFFFFFFFFFFF59CE830846211CD7D6
:1046E000FFF7FFFFFFFFFFFFFFFFFFFFFFFFFFFFE2
:1046F000FFFFFFFFFFFFFFFFFFFFFFFFFFEF8BBA93
:1047000004F845F862E044F000F88EDBFFDFF8A51E
:10471000C410E410E4100411E4102519FFFFFFFF9A
:10472000FFFFFFFFFFFFFFFFBEF78729830839B6B2
:10473000FFF7DFF7FFFFFFFFFFFFFFFFFFFFFFFFB9
:10474000FFFFFFFFFFFFFFFFFFFFFFFFBEE74ABACC
:1047500003F845F864F844F800F86EE3FFD7F48CEA
:1047600083080411E410E410E4100519FFFFFFFFB3
:10477000FFFFFFFFFFFFFFFFFFFFEF7300007284EB
:10478000FFEFBEEFDFFFFFFFFFFFFFFFFFFFFFFFBA
:10479000FFFFFFFFFFFFFFFFFFFFFFFFDFE78BBA1A
:1047A00003F845F845F823F800F8D3D4FFD74E5B5B
:1047B0002100293A55A58308C4102519FFFFFFFFE2
:1047C000FFFFFFFFFFFFFFFFFFFFFBDEA308E83156
:1047D0009EDF9EE7BFEFFFFFFFFFFFFFFFFFFFFF33
:1047E000FFFFFFFFFFFFFFFFFFFFFFFFFFF751BCD2
:1047F00002E003F803F043E0ECC27ECFFCBE4621AA
:104800002100D394FFFF518400008729FFFFFFFFA1
:10481000FFFFFFFFFFFFFFFFFFFFFFFF51840000CF
:10482000F48CFFEF9EE7BFEFDFFFFFFFFFFFFFFF0F
:10483000FFFFFFFFFFFFFFFFFFFFFFFFFFFF3DDF6A
:1048400055BD52BC72BCB7B55DC7FFDFF06B000051
:10485000093ABFF7FFFFFFFF149D55A5FFFFFFFFBC
:10486000FFFFFFFFFFFFFFFFFFFFFFFFFFFFAC4A60
:10487000A408BBBEDFE77EE7BEEFDFF7DFFFFFFF89
:10488000FFFFFFFFFFFFFFFFFFFFFFFFDFFFDFF780
:10489000FFEFDFDFBFD79ED7DFDFD8A58308261164
:1048A000DBD6FFFFFFFFFFFFFFFFFFFFFFFFFFFF65
:1048B000FFFFFFFFFFFFFFFFFFFFFFFF79EE8BDC36
:1048C0002131A9213DCFBFDF7EDF9EE7BEEFBFEFE5
:1048D000DFF7DFF7DFF7DFF7DFF7BFEFBEEF9EE7CA
:1048E0007EDF5ED75ED7DFDF9AB626194208EDA3DA
:1048F000BFFFFFFFFFFFFFFFFFFFFFFFFFFFFFFF08
:10490000FFFFFFFFFFFFFFFFFFFF74DDC0DB00FEC7
:1049100042EE024289217BB6DFDF7ED77EDF7EDF7B
:104920009EE79EE79EE79EE79EE77EDF7EDF5DD700
:104930005DD79EDFFFE7F8A50711E31802C560FD0C
:10494000E6D3DBEEFFFFFFFFFFFFFFFFFFFFFFFFF1
:10495000FFFFFFFFFFFFFFFF9EF784BAC1FC42FE8F
:1049600082FEA2FE8183452174745EC7DFDF7ED79D
:104970005ED75DD75ED75ED75DD75DD75ED79EDF4A
:10498000FFE73DC7F1638408425226E629FF86FE11
:10499000E0F36AC3FFFFFFFFFFFFFFFFFFFFFFFF23
:1049A000FFFFFFFFFFFFFFFF18DEC1D2A2FD22FEC7
:1049B00042FE42FE62FEE2D4416A494253743BA683
:1049C0003EC7BFD7BFD7BFD7BFDFBFD73EC71AA627
:1049D000F263A729824122B462FE83FEAAFE0FFF82
:1049E00067FD63BA3CEFFFFFFFFFFFFFFFFFFFFF25
:1049F000FFFFFFFFFFFFFFFF9AE680D221FDC2FD10
:104A0000E2F5C2F582F582FD62FD61DC219B846ADC
:104A1000E96A2C63AF6311746E632C63895A045284
:104A2000817AC2CBE2FC62FD82FDC2FDC2FDE4FDE3
:104A300024FD62CA1CE7FFFFFFFFFFFFFFFFFFFF30
:104A4000FFFFFFFFFFFFFFFFFFFFB1CC81D2C0F3ED
:104A5000C1FC02FD02FDE2FCC2FCC2FC81FC80FB49
:104A6000C0C9A48135AD59CE719C218100DAA1FB6A
:104A700082FCA2FC82FCA2FC02FD22FDE2FC00FC06
:104A800060DA90CCFFFFFFFFFFFFFFFFFFFFFFFF9C
:104A9000FFFFFFFFFFFFFFFFFFFFFFFF59DE0DC41A
:104AA00006CBE4D203DB03DBE3DAC3D2A4C209B34F
:104AB000D2BC9EF7FFFFFFFFFFFFFBE60EB4A6BAD6
:104AC00083D2E3E202EB22EB22E303DBE4D26AC30C
:104AD000B6D5FFFFFFFFFFFFFFFFFFFF304B0008D2
:104AE000244B0008144B0008044B00080000000091
:104AF000000000000102030406070809000000008E
:104B000001020304526F746174696F6E3A32373078
:104B100000000000526F746174696F6E3A31383072
:104B200000000000526F746174696F6E3A39300092
:104B3000526F746174696F6E3A3000005C4B00080C
:104B4000000000201C0000009E250008784B000893
:104B50001C000020BC050000AE250008000000F885
:104B6000E0071F00E0FF1FF8010000001000000038
:084B7000000000000024F40025
:04000005080000ED02
:00000001FF
